:100000000C9446000C9465000C9465000C946500FB
:100010000C9465000C9465000C9465000C946500CC
:100020000C9465000C9465000C9465000C946500BC
:100030000C9465000C9465000C9465000C946500AC
:100040000C9465000C9465000C9465000C9465009C
:100050000C9465000C9465000C9465000C9465008C
:100060000C9465000C9465000C9465000C9465007C
:100070000C9465000C9465000C9465000C9465006C
:100080000C9465000C9465000C94650011241FBE4F
:10009000CFEFD0E4DEBFCDBF11E0A0E0B1E0E2E4FD
:1000A000F2E000E00BBF02C007900D92AE30B10746
:1000B000D9F721E0AEE0B1E001C01D92A031B20756
:1000C000E1F70E9478000C941F010C940000CF937C
:1000D000C82F8A3019F48DE00E9467008091C0001B
:1000E00085FFFCCFC093C60080E090E0CF910895DB
:1000F00080EF81B98FE082B98FE787B980E888B94E
:1001000010920F0110920E0140E030E020E080914B
:100110000E0190910F0182309105B9F128F40097FA
:1001200061F0019789F068C08430910509F449C0F5
:1001300098F1059709F44CC05FC081E090E090937E
:100140000F0180930E0158C041110BC080B1813066
:1001500041F482E090E090930F0180930E013F5FA5
:100160004BC0413059F480B1813041F484E090E0DB
:1001700090930F0180930E013F5F3EC081E090E0BD
:1001800090930F0180930E0137C083E090E090932D
:100190000F0180930E0130C080B181110BC0373048
:1001A00010F0409530E081E090E090930F01809353
:1001B0000E0122C083E090E090930F0180930E0126
:1001C0001BC085E090E090930F0180930E0114C056
:1001D00080B181110BC0373010F0409530E081E0E4
:1001E00090E090930F0180930E0106C085E090E0AF
:1001F00090930F0180930E0180910E0190910F0159
:100200008230910531F08430910561F0892BA9F499
:1002100013C0832F90E0019721E001C0220F8A953F
:10022000EAF70BC087E090E0831B910921E001C051
:10023000220F8A95EAF701C020E028B968CFF89428
:02024000FFCFEE
:0E024200000000020000000067000000000045
:00000001FF
