:100000000C944E000C946D000C946D000C946D00DB
:100010000C946D000C946D000C946D000C946D00AC
:100020000C946D000C946D000C946D000C946D009C
:100030000C946D000C946D000C946D000C946D008C
:100040000C946D000C946D000C946D000C946D007C
:100050000C946D000C946D000C946D000C946D006C
:100060000C946D000C946D000C946D000C946D005C
:100070000C946D000C946D000C946D000C946D004C
:100080000C946D000C946D000C946D009C00A3000A
:10009000C900D000E900F0000901100111241FBEC1
:1000A000CFEFD0E4DEBFCDBF11E0A0E0B1E0E4E8E7
:1000B000F2E000E00BBF02C007900D92AE30B10736
:1000C000D9F721E0AEE0B1E001C01D92A031B20746
:1000D000E1F70E9480000C9440010C940000CF9343
:1000E000C82F8A3019F48DE00E946F008091C00003
:1000F00085FFFCCFC093C60080E090E0CF910895CB
:1001000080EF81B98FE082B98FE787B980E888B93D
:1001100010920F0110920E0120E080B180958F7037
:10012000E0910E01F0910F01E830F10508F087C071
:10013000EA5BFF4F0C94370181E090E090930F0150
:1001400080930E017CC0813049F4293038F482E07C
:1001500090E090930F0180930E0171C0823049F4BA
:10016000222339F084E090E090930F0180930E01F8
:1001700066C0833039F486E090E090930F0180935D
:100180000E015DC081E090E090930F0180930E011D
:1001900056C083E090E090930F0180930E014FC012
:1001A000811107C081E090E090930F0180930E01D0
:1001B00046C0833039F486E090E090930F0180933D
:1001C0000E013DC083E090E090930F0180930E01FB
:1001D00036C085E090E090930F0180930E012FC010
:1001E000811107C081E090E090930F0180930E0190
:1001F00026C0833039F486E090E090930F0180931D
:100200000E011DC085E090E090930F0180930E01D8
:1002100016C087E090E090930F0180930E010FC00D
:10022000811107C081E090E090930F0180930E014F
:1002300006C087E090E090930F0180930E018091BB
:100240000E0190910F018230910551F018F4892B25
:1002500059F00BC08430910529F0069729F005C0AC
:100260002F5F03C0215001C020E028B956CFEE0F08
:10027000FF1F0024001C0BBE0790F691E02D09948F
:04028000F894FFCF20
:0E02840000000002000000006F0000000000FB
:00000001FF
