:100000000C9446000C945D000C945D000C945D0013
:100010000C945D000C945D000C945D000C945D00EC
:100020000C945D000C945D000C945D000C945D00DC
:100030000C945D000C945D000C945D000C945D00CC
:100040000C945D000C945D000C945D000C945D00BC
:100050000C945D000C945D000C945D000C945D00AC
:100060000C945D000C945D000C945D000C945D009C
:100070000C945D000C945D000C945D000C945D008C
:100080000C945D000C945D000C945D0011241FBE67
:10009000CFEFD0E4DEBFCDBF11E0A0E0B1E0E6E5F8
:1000A000F1E000E00BBF02C007900D92AE30B10747
:1000B000D9F70E9470000C94A9000C940000CF9313
:1000C000C82F8A3019F48DE00E945F008091C00033
:1000D00085FFFCCFC093C60080E090E0CF910895EB
:1000E00080EF81B98FE082B98FE787B980E888B95E
:1000F00080B180958F70853010F090E001C091E064
:100100002FEF280F2230A8F02DEF280F223098F083
:100110002BEF280F223088F029EF280F233078F0BA
:1001200026EF280F233068F08D50833060F080E098
:100130000BC080E209C080E307C088E305C08CE300
:1001400003C08EE301C08FE3913009F4806488B965
:06015000CFCFF894FFCFB1
:0E01560000000002000000005F00000000003A
:00000001FF
