:100000000C944D000C946C000C946C000C946C00DF
:100010000C946C000C946C000C946C000C946C00B0
:100020000C946C000C946C000C946C000C946C00A0
:100030000C946C000C946C000C946C000C946C0090
:100040000C946C000C946C000C946C000C946C0080
:100050000C946C000C946C000C946C000C946C0070
:100060000C946C000C946C000C946C000C946C0060
:100070000C946C000C946C000C946C000C946C0050
:100080000C946C000C946C000C946C00E500E70080
:10009000EA00ED00F000F300F60011241FBECFEFE0
:1000A000D0E4DEBFCDBF11E0A0E0B1E0E8E0F2E0D7
:1000B00000E00BBF02C007900D92AE30B107D9F738
:1000C00021E0AEE0B1E001C01D92A031B207E1F73E
:1000D0000E947F000C9402010C940000CF93C82F63
:1000E0008A3019F48DE00E946E008091C00085FF77
:1000F000FCCFC093C60080E090E0CF91089511B886
:100100008FEF82B987B918B810920F0110920E01C3
:1001100080B1882309F44DC080B1813019F080B1DD
:10012000823039F481E090E090930F0180930E01CA
:1001300040C080B1833019F080B1843039F482E05E
:1001400090E090930F0180930E0133C080B1853011
:1001500019F080B1863039F483E090E090930F017C
:1001600080930E0126C080B1873018F480B18A30A8
:1001700038F484E090E090930F0180930E0119C051
:1001800080B18A3018F480B18D3038F485E090E089
:1001900090930F0180930E010CC080B18D3048F018
:1001A00080B1803130F486E090E090930F0180932D
:1001B0000E01E0910E01F0910F01E730F10508F01A
:1001C000A3CFEA5BFF4F0C94F90018B89DCF80E6EF
:1001D00088B99ACF80E788B997CF88E388B994CF58
:1001E0008CE388B991CF8EE388B98ECF8FE388B93D
:1001F0008BCFEE0FFF1F0024001C0BBE0790F69163
:08020000E02D0994F894FFCFF2
:0E02080000000002000000006E000000000078
:00000001FF
