:100000000C9459000C9478000C9478000C947800AF
:100010000C9478000C9478000C9478000C94780080
:100020000C9478000C9478000C9478000C94780070
:100030000C9478000C9478000C9478000C94780060
:100040000C9478000C9478000C9478000C94780050
:100050000C9478000C9478000C9478000C94780040
:100060000C9478000C9478000C9478000C94780030
:100070000C9478000C9478000C9478000C94780020
:100080000C9478000C9478000C94780027012E01D1
:100090003E01570179019B01BD01DF0101022302ED
:1000A00048024E0255025C0263026A027102780243
:1000B0007F0211241FBECFEFD0E4DEBFCDBF11E021
:1000C000A0E0B1E0EAE4F8E000E00BBF02C0079076
:1000D0000D92AE30B107D9F721E0AEE0B1E001C03A
:1000E0001D92A431B207E1F70E940E010C94230483
:1000F0000C940000CF93C82F8A3019F48DE00E9431
:100100007A008091C00085FFFCCFC093C60080E0DC
:1001100090E0CF910895CF92DF92EF92FF926B0122
:100120007C0160910E0170910F01809110019091FE
:100130001101A70196010E948F02882309F458C07B
:1001400020E030E0A901C701B6010E948F028111B1
:1001500006C0E1E9F0E080818870808305C0E1E9B4
:10016000F0E080818360808328E539E344E75FE342
:10017000C701B6010E948F0288233CF48FEF9FEFE6
:10018000909399008093980027C020E034E244EFD8
:1001900056E4C701B6010E94B10318162CF4109260
:1001A00099001092980018C020E030E040E053E43D
:1001B000C701B6010E94B6039B01AC0160E074E286
:1001C00084EF9AE40E9494020E9406036150710930
:1001D000709399006093980010929500109294008B
:1001E000C0920E01D0920F01E0921001F092110125
:1001F000FF90EF90DF90CF90089580E4809390007F
:100200008BE08093910060E070E0CB010E948B0056
:1002100008951092900010929100089511B88FEFF8
:1002200082B984B915B80E94FD0010921301109292
:10023000120180B18095E0911201F0911301EA3032
:10024000F10508F018C1EA5BFF4F0C94860281E0CB
:1002500090E090931301809312010DC1813039F425
:1002600082E090E0909313018093120104C181E039
:1002700090E09093130180931201FDC0813039F416
:1002800081E090E09093130180931201F4C08230DA
:1002900039F483E090E09093130180931201EBC056
:1002A00082E090E09093130180931201E4C08130CA
:1002B00039F481E090E09093130180931201DBC048
:1002C000823039F484E090E090931301809312011E
:1002D000D2C0843039F482E090E09093130180938F
:1002E0001201C9C083E090E0909313018093120142
:1002F000C2C0813039F481E090E090931301809383
:100300001201B9C0823039F485E090E09093130176
:1003100080931201B0C0843039F483E090E0909370
:10032000130180931201A7C084E090E09093130121
:1003300080931201A0C0813039F481E090E0909365
:1003400013018093120197C0823039F486E090E067
:1003500090931301809312018EC0843039F484E0AD
:1003600090E0909313018093120185C085E090E0A6
:1003700090931301809312017EC0813039F481E0A3
:1003800090E0909313018093120175C0823039F48C
:1003900087E090E090931301809312016CC0843049
:1003A00039F485E090E0909313018093120163C0CB
:1003B00086E090E090931301809312015CC081303D
:1003C00039F481E090E0909313018093120153C0BF
:1003D000823039F488E090E0909313018093120109
:1003E0004AC0843039F486E090E090931301809302
:1003F000120141C087E090E09093130180931201B5
:100400003AC0813039F481E090E0909313018093F9
:10041000120131C0823039F489E090E090931301E9
:100420008093120128C0843039F487E090E09093E3
:100430001301809312011FC088E090E09093130194
:100440008093120118C0813039F481E090E09093DC
:100450001301809312010FC0843039F488E090E0DA
:10046000909313018093120106C089E090E090936D
:10047000130180931201E0911201F0911301319761
:10048000E930F10508F0D5CEE05BFF4F0C94860211
:1004900060E070E0CB010E948B00CBCE64EA70ED8F
:1004A00082E893E40E948B00C4CE6BE774ED82E98E
:1004B00093E40E948B00BDCE64EA70ED84EA93E47D
:1004C0000E948B00B6CE61E77DE98EEA93E40E943C
:1004D0008B00AFCE60E070E084EC93E40E948B0070
:1004E000A8CE60E070E08CED93E40E948B00A1CE7A
:1004F00064EA70EF86EF93E40E948B009ACE60E08E
:1005000070ED82E094E40E948B0093CEEE0FFF1F0B
:100510000024001C0BBE0790F691E02D09940E9468
:100520003C0308F481E008950E94A8020C9477032C
:100530000E94700358F00E94690340F029F45F3F65
:1005400029F00C94600351110C94AB030C946603D6
:100550000E94880368F39923B1F3552391F3951B07
:10056000550BBB27AA2762177307840738F09F5FD4
:100570005F4F220F331F441FAA1FA9F335D00E2E41
:100580003AF0E0E832D091505040E695001CCAF7AE
:100590002BD0FE2F29D0660F771F881FBB1F261771
:1005A00037074807AB07B0E809F0BB0B802DBF0148
:1005B000FF2793585F4F3AF09E3F510578F00C9417
:1005C00060030C94AB035F3FE4F3983ED4F386954D
:1005D00077956795B795F7959F5FC9F7880F911D38
:1005E0009695879597F90895E1E0660F771F881F24
:1005F000BB1F621773078407BA0720F0621B730BD7
:10060000840BBA0BEE1F88F7E09508950E940D0346
:100610006894B1110C94AB0308950E94900388F084
:100620009F5798F0B92F9927B751B0F0E1F0660FB6
:10063000771F881F991F1AF0BA95C9F714C0B130F7
:1006400091F00E94AA03B1E008950C94AA03672FC9
:10065000782F8827B85F39F0B93FCCF38695779526
:100660006795B395D9F73EF490958095709561950F
:100670007F4F8F4F9F4F0895990F0008550FAA0B7A
:10068000E0E8FEEF16161706E807F907C0F01216A5
:100690001306E407F50798F0621B730B840B950BA8
:1006A00039F40A2661F0232B242B252B21F40895FD
:1006B0000A2609F4A140A6958FEF811D811D08959A
:1006C00097F99F6780E870E060E008959FEF80EC05
:1006D000089500240A9416161706180609060895A8
:1006E00000240A9412161306140605060895092E0E
:1006F0000394000C11F4882352F0BB0F40F4BF2B7D
:1007000011F460FF04C06F5F7F4F8F4F9F4F0895BC
:1007100057FD9058440F551F59F05F3F71F04795B2
:10072000880F97FB991F61F09F3F79F08795089597
:10073000121613061406551FF2CF4695F1DF08C0B6
:10074000161617061806991FF1CF869571056105D3
:1007500008940895E894BB2766277727CB0197F97B
:1007600008950E943C0308F48FEF08950E94C90386
:100770000C9477030E94690338F00E94700320F004
:10078000952311F00C9460030C94660311240C94CF
:10079000AB030E94880370F3959FC1F3950F50E05F
:1007A000551F629FF001729FBB27F00DB11D639F23
:1007B000AA27F00DB11DAA1F649F6627B00DA11DC9
:1007C000661F829F2227B00DA11D621F739FB00D6F
:1007D000A11D621F839FA00D611D221F749F3327DF
:1007E000A00D611D231F849F600D211D822F762F78
:1007F0006A2F11249F5750409AF0F1F088234AF055
:10080000EE0FFF1FBB1F661F771F881F91505040C0
:10081000A9F79E3F510580F00C9460030C94AB0344
:100820005F3FE4F3983ED4F3869577956795B79547
:10083000F795E7959F5FC1F7FE2B880F911D969561
:0A084000879597F90895F894FFCF0B
:0E084A0000000002000000007A000000000024
:00000001FF
