:100000000C9446000C9465000C9465000C946500FB
:100010000C9465000C9465000C9465000C946500CC
:100020000C9465000C9465000C9465000C946500BC
:100030000C9465000C94B4000C9465000C9465005D
:100040000C9465000C9465000C9465000C9465009C
:100050000C9465000C9465000C9465000C9465008C
:100060000C9465000C9465000C9465000C9465007C
:100070000C9465000C9465000C9465000C9465006C
:100080000C9465000C9465000C94650011241FBE4F
:10009000CFEFD0E4DEBFCDBF11E0A0E0B1E0ECE7F0
:1000A000F4E000E00BBF02C007900D92A431B1074D
:1000B000D9F721E0A4E1B1E001C01D92A932B20755
:1000C000E1F70E940A020C943C020C940000CF93CA
:1000D000C82F8A3019F48DE00E9467008091C0001B
:1000E00085FFFCCFC093C60080E090E0CF910895DB
:1000F00060930001709301018093020190930301CA
:10010000609318017093190180931A0190931B0159
:1001100008958BE0809381008DE790E090938900B3
:100120008093880082E080936F0010928500109287
:1001300084008091000190910101A0910201B09191
:1001400003018093180190931901A0931A01B093B1
:100150001B018FB780688FBF0895109281000895AA
:1001600081E080931C0108951F920F920FB60F92A9
:1001700011240BB60F922F933F934F935F936F937E
:100180007F938F939F93AF93BF93EF93FF93809150
:10019000180190911901A0911A01B0911B010197CA
:1001A000A109B1098093180190931901A0931A0134
:1001B000B0931B01892B8A2B8B2B91F40E94B000EA
:1001C0008091000190910101A0910201B091030181
:1001D0008093180190931901A0931A01B0931B0109
:1001E000FF91EF91BF91AF919F918F917F916F910F
:1001F0005F914F913F912F910F900BBE0F900FBECB
:100200000F901F90189580912101909122018130CB
:10021000910589F018F0029731F13DC081E090E03E
:1002200090932201809321011092170110921E01D8
:1002300010921D0134C080911D0190911E01029702
:100240005CF082E090E09093220180932101109273
:100250001E0110921D0123C081E090E090932201C5
:10026000809321011CC080911D0190911E010A976D
:100270005CF081E090E09093220180932101109244
:100280001E0110921D010BC082E090E090932201AC
:100290008093210104C010922201109221018091CB
:1002A0002101909122018130910519F0029771F09E
:1002B000089581E08093170180911D0190911E01A6
:1002C000019690931E0180931D01089510921701CD
:1002D00080911D0190911E01019690931E018093C3
:1002E0001D0108958091250190912601813091058D
:1002F00059F018F0029781F010C081E090E09093DF
:100300002601809325010DC080B181E090E090939B
:1003100026018093250105C080B11092260110921C
:10032000250180912501909126018130910519F0D8
:10033000029749F0089581E08093160180B187709B
:100340008093140108951092160108958091270159
:1003500090912801009719F0019751F00FC081E0AA
:1003600090E090932801809327011092150106C018
:1003700081E090E0909328018093270180912701EC
:1003800090912801019751F480B1869586958695C4
:1003900090911501981710F480931501089580919C
:1003A000230190912401892B21F0109224011092B5
:1003B0002301089580911F0190912001009719F069
:1003C000019761F007C081E090E090932001809355
:1003D0001F0104C01092200110921F0180911F0183
:1003E000909120010197A9F42091150130E0220F8E
:1003F000331F220F331F220F331F90911601892FB5
:1004000090E0880F991F2460822B90911701892B0F
:1004100085B9089511B88FEF82B984B915B864E62B
:1004200070E080E090E00E9478000E9489001092C5
:1004300022011092210110922601109225011092A2
:10044000280110922701109224011092230110928A
:10045000200110921F010E9403010E9472010E945C
:10046000A6010E94CF010E94DA0180911C0188231D
:0C047000E1F310921C01EFCFF894FFCFD5
:10047C000100000000000002000000006700000006
:04048C000000640008
:00000001FF
