:100000000C9446000C9465000C9465000C946500FB
:100010000C9465000C9465000C9465000C946500CC
:100020000C9465000C9465000C9465000C946500BC
:100030000C9465000C941C010C9465000C946500F4
:100040000C9465000C9465000C9465000C9465009C
:100050000C9465000C9465000C9465000C9465008C
:100060000C9465000C9465000C9465000C9465007C
:100070000C9465000C9465000C9465000C9465006C
:100080000C9465000C9465000C94650011241FBE4F
:10009000CFEFD0E4DEBFCDBF11E0A0E0B1E0EAE9F0
:1000A000F4E000E00BBF02C007900D92AC31B10745
:1000B000D9F721E0ACE1B1E001C01D92A332B20753
:1000C000E1F70E947C010C944B020C94000040E08C
:1000D00050E00CC000002F5F3F4F02C020E030E036
:1000E000273063E03607B4F34F5F5F4F4817590777
:1000F000ACF308959BB19F7B9BB988B98BB18068A5
:100100008BB900008BB18F778BB982E090E00E94B1
:100110006700089581E00E947A000895813120F4FB
:1001200081580E947A00089581550E947A000895AE
:1001300084E690E00E94670088E30E947A0086E0EF
:100140000E947A008FE00E947A0081E00E947A008B
:100150008AE090E00E94670008959BB190649BB98B
:1001600088B98BB180688BB900008BB18F778BB960
:1001700081E090E00E9467000895EF92FF920F9354
:100180001F93CF93DF93182FEB010E948A000EC0BC
:1001900001E0010F812F0E948E007E018FEFE81A8F
:1001A000F80A88810E94AD00102FE7018881811133
:1001B000EFCFDF91CF911F910F91FF90EF900895B6
:1001C000CF93C82F8A3019F48DE00E94E00080910F
:1001D000C00085FFFCCFC093C60080E090E0CF91C7
:1001E00008958BE0809381008DE790E090938900E3
:1001F0008093880082E080936F00109285001092B7
:1002000084008091000190910101A0910201B091C0
:10021000030180931C0190931D01A0931E01B093D4
:100220001F018FB780688FBF0895109281000895D5
:1002300081E08093200108951F920F920FB60F92D4
:1002400011240BB60F922F933F934F935F936F93AD
:100250007F938F939F93AF93BF93EF93FF9380917F
:100260001C0190911D01A0911E01B0911F010197E9
:10027000A109B10980931C0190931D01A0931E0157
:10028000B0931F01892B8A2B8B2B91F40E941801AC
:100290008091000190910101A0910201B0910301B0
:1002A00080931C0190931D01A0931E01B0931F0128
:1002B000FF91EF91BF91AF919F918F917F916F913E
:1002C0005F914F913F912F910F900BBE0F900FBEFA
:1002D0000F901F9018956093000170930101809317
:1002E00002019093030160931C0170931D018093A0
:1002F0001E0190931F01089511B88FEF82B984B940
:1003000015B887B918B88AB91BB86CE271E080E0FB
:1003100090E00E946B010E94F1000E9498001092F0
:10032000220110922101D5E0C1E011E0809120016D
:100330008823E1F31092200180B180958F70209185
:100340002101309122012230310591F138F421153B
:10035000310569F02130310589F069C0233031055C
:1003600009F443C02430310509F450C060C081E075
:1003700090E0909322018093210159C0813089F44B
:1003800082E090E09093220180932101C33011F02C
:10039000C53011F4DF5F4BC0DD2309F448C0D150F4
:1003A00046C081E090E090932201809321013FC0FC
:1003B000811109C0DA3038F483E090E09093220193
:1003C0008093210134C0811109C0DA3039F484E00E
:1003D00090E0909322018093210129C082E090E077
:1003E000909322018093210122C0813041F481E069
:1003F00090E09093220180932101C1E018C083E036
:1004000090E0909322018093210111C0813049F442
:1004100081E090E09093220180932101D5E0C1E03A
:1004200006C084E090E090932201809321018091A6
:100430002101909122018130910519F00497C1F0BA
:100440001CC0C13049F0C23049F0C33049F0C4305B
:1004500049F0C53059F408C011E008C012E006C0E8
:1004600014E004C012E002C0C1E011E0CF5F05C09B
:1004700062E171E081E00E94BD0015B9DA3008F058
:1004800055CF0E948A0081E00E948E0080E38D0F8C
:0A0490000E94AD004BCFF894FFCF9F
:10049A00010000000000000200000000E00000006F
:0C04AA00000057494E4E45522121000031
:00000001FF
