:100000000C9446000C9465000C9465000C946500FB
:100010000C9465000C9465000C9465000C946500CC
:100020000C9465000C9465000C9465000C946500BC
:100030000C9465000C9465000C9465000C946500AC
:100040000C9465000C9465000C9465000C9465009C
:100050000C9465000C9465000C9465000C9465008C
:100060000C9465000C9465000C9465000C9465007C
:100070000C9465000C9465000C9465000C9465006C
:100080000C9465000C9465000C94650011241FBE4F
:10009000CFEFD0E4DEBFCDBF11E0A0E0B1E0EEEFE6
:1000A000F2E000E00BBF02C007900D92AE30B10746
:1000B000D9F711E0AEE0B1E001C01D92A031B10767
:1000C000E1F70E9490000C947D010C940000CF9306
:1000D000DF9300D01F92CDB7DEB789837B836A831D
:1000E00089818A3031F48A819B81BC018DE00E9434
:1000F000670080EC90E0FC018081882F90E08072A6
:1001000099270097B1F386EC90E02981FC012083C8
:1001100080E090E00F900F900F90DF91CF910895C5
:10012000CF93DF931F92CDB7DEB781E290E0FC0161
:10013000108282E290E02FEFFC01208384E290E0C5
:100140002EEFFC01208385E290E021E0FC0120837A
:1001500010920F0110920E01198280910E01909160
:100160000F018230910569F18330910530F40097D9
:1001700069F08130910589F08CC08330910509F4D4
:1001800042C08430910509F462C083C081E090E0F0
:1001900090930F0180930E017CC080E290E0FC01FF
:1001A0008081843039F482E090E090930F01809355
:1001B0000E016FC081E090E090930F0180930E01DB
:1001C00068C080E290E0FC018081882339F483E0FC
:1001D00090E090930F0180930E0114C080E290E0B4
:1001E000FC018081843039F482E090E090930F012B
:1001F00080930E0107C081E090E090930F018093FF
:100200000E0147C046C080E290E0FC018081823050
:1002100049F484E090E090930F0180930E0181E017
:10022000898314C080E290E0FC018081882339F446
:1002300083E090E090930F0180930E0107C081E06E
:1002400090E090930F0180930E0123C022C080E2C2
:1002500090E0FC018081803839F481E090E0909357
:100260000F0180930E0114C080E290E0FC018081B8
:10027000843039F482E090E090930F0180930E0176
:1002800007C084E090E090930F0180930E0100C0BE
:10029000000080910E0190910F018230910549F18B
:1002A0008330910520F48130910541F025C08330E1
:1002B000910509F18430910531F01EC085E290E08E
:1002C000FC01108219C08981813091F485E290E0AF
:1002D000FC018081882331F485E290E021E0FC017B
:1002E000208304C085E290E0FC011082198204C0E2
:0E02F00003C0000032CF000030CFF894FFCFE3
:0E02FE00000000020000000067000000000089
:00000001FF
