:100000000C9446000C9465000C9465000C946500FB
:100010000C9465000C9465000C9465000C946500CC
:100020000C9465000C9465000C9465000C946500BC
:100030000C9465000C9465000C9465000C946500AC
:100040000C9465000C9465000C9465000C9465009C
:100050000C9465000C9465000C9465000C9465008C
:100060000C9465000C9465000C9465000C9465007C
:100070000C9465000C9465000C9465000C9465006C
:100080000C9465000C9465000C94650011241FBE4F
:10009000CFEFD0E4DEBFCDBF11E0A0E0B1E0ECE6F1
:1000A000F2E000E00BBF02C007900D92AE30B10746
:1000B000D9F711E0AEE0B1E001C01D92A031B10767
:1000C000E1F70E9490000C9434010C940000CF934F
:1000D000DF9300D01F92CDB7DEB789837B836A831D
:1000E00089818A3031F48A819B81BC018DE00E9434
:1000F000670080EC90E0FC018081882F90E08072A6
:1001000099270097B1F386EC90E02981FC012083C8
:1001100080E090E00F900F900F90DF91CF910895C5
:10012000CF93DF93CDB7DEB781E290E0FC01108280
:1001300082E290E02FEFFC01208384E290E02EEF3A
:10014000FC01208385E290E021E0FC0120831092F5
:100150000F0110920E0180910E0190910F018230DB
:10016000910561F18330910530F4009761F08130A1
:10017000910581F05FC083309105A1F18430910534
:1001800009F444C057C081E090E090930F01809340
:100190000E0150C080E290E0FC018081843039F48F
:1001A00082E090E090930F0180930E0143C081E0C4
:1001B00090E090930F0180930E013CC080E290E0AC
:1001C000FC018081882339F483E090E090930F0153
:1001D00080930E012FC081E090E090930F018093F7
:1001E0000E0128C080E290E0FC018081823039F469
:1001F00084E090E090930F0180930E011BC081E09A
:1002000090E090930F0180930E0114C080E290E083
:10021000FC018081803839F481E090E090930F01F7
:1002200080930E0106C084E090E090930F018093CC
:100230000E01000080910E0190910F018130910517
:1002400088F08430910520F08430910531F00AC0A7
:1002500085E290E0FC01108206C085E290E021E09A
:0C026000FC012083000077CFF894FFCF52
:0E026C0000000002000000006700000000001B
:00000001FF
