:100000000C9446000C945D000C945D000C945D0013
:100010000C945D000C945D000C945D000C945D00EC
:100020000C945D000C945D000C945D000C945D00DC
:100030000C945D000C945D000C945D000C945D00CC
:100040000C945D000C945D000C945D000C945D00BC
:100050000C945D000C945D000C945D000C945D00AC
:100060000C945D000C945D000C945D000C945D009C
:100070000C945D000C945D000C945D000C945D008C
:100080000C945D000C945D000C945D0011241FBE67
:10009000CFEFD0E4DEBFCDBF11E0A0E0B1E0E8E4F7
:1000A000F1E000E00BBF02C007900D92AE30B10747
:1000B000D9F70E9474000C94A2000C940000CF9316
:1000C000C82F8A3019F48DE00E945F008091C00033
:1000D00085FFFCCFC093C60080E090E0CF910895EB
:1000E00080EE80937A00089511B88FEF82B984B9B9
:1000F00015B80E94700020E08091780090917900FE
:100100008133910508F021E08D33910508F02260DC
:100110008934910508F024608535910508F0286040
:100120008136910508F020618D36910508F0206236
:100130008937910508F020648538910508F020681A
:0801400025B9DACFF894FFCFD6
:0E01480000000002000000005F000000000048
:00000001FF
