:100000000C9446000C945D000C945D000C945D0013
:100010000C945D000C945D000C945D000C945D00EC
:100020000C945D000C945D000C945D000C945D00DC
:100030000C945D000C945D000C945D000C945D00CC
:100040000C945D000C945D000C945D000C945D00BC
:100050000C945D000C945D000C945D000C945D00AC
:100060000C945D000C945D000C945D000C945D009C
:100070000C945D000C945D000C945D000C945D008C
:100080000C945D000C945D000C945D0011241FBE67
:10009000CFEFD0E4DEBFCDBF11E0A0E0B1E0E6E4F9
:1000A000F1E000E00BBF02C007900D92AE30B10747
:1000B000D9F70E9474000C94A1000C940000CF9317
:1000C000C82F8A3019F48DE00E945F008091C00033
:1000D00085FFFCCFC093C60080E090E0CF910895EB
:1000E00080EE80937A00089511B88FEF82B984B9B9
:1000F00015B80E94700020E08091780090917900FE
:100100008830910508F021E08F30910508F02260D9
:100110008631910508F024608D31910508F0286042
:100120008432910508F020618B32910508F020623D
:100130008233910508F02064C99708F0206825B93A
:06014000DBCFF894FFCFB5
:0E01460000000002000000005F00000000004A
:00000001FF
