:100000000C9446000C945D000C945D000C945D0013
:100010000C945D000C945D000C945D000C945D00EC
:100020000C945D000C945D000C945D000C945D00DC
:100030000C945D000C945D000C945D000C945D00CC
:100040000C945D000C945D000C945D000C945D00BC
:100050000C945D000C945D000C945D000C945D00AC
:100060000C945D000C945D000C945D000C945D009C
:100070000C945D000C945D000C945D000C945D008C
:100080000C945D000C945D000C945D0011241FBE67
:10009000CFEFD0E4DEBFCDBF11E0A0E0B1E0E8E6F5
:1000A000F1E000E00BBF02C007900D92AE30B10747
:1000B000D9F70E9470000C94B2000C940000CF930A
:1000C000C82F8A3019F48DE00E945F009091C00023
:1000D00095FFFCCFC093C60080E090E0CF910895DB
:1000E00011B88FEF82B987B918B880B18F7090B10D
:1000F000907120B1207230B13074853010F040E042
:1001000001C041E05FEF580F5230A8F05DEF580F8B
:10011000523098F05BEF580F523088F059EF580F7B
:10012000533078F056EF580F533068F08D508330CD
:1001300060F080E00BC080E209C080E307C088E384
:1001400005C08CE303C08EE301C08FE3413009F4A6
:100150008064903129F4203219F4311101C0806893
:0801600088B9C3CFF894FFCF6A
:0E01680000000002000000005F000000000028
:00000001FF
