:100000000C9446000C945D000C945D000C945D0013
:100010000C945D000C945D000C945D000C945D00EC
:100020000C945D000C945D000C945D000C945D00DC
:100030000C945D000C945D000C945D000C945D00CC
:100040000C945D000C945D000C945D000C945D00BC
:100050000C945D000C945D000C945D000C945D00AC
:100060000C945D000C945D000C945D000C945D009C
:100070000C945D000C945D000C945D000C945D008C
:100080000C945D000C945D000C945D0011241FBE67
:10009000CFEFD0E4DEBFCDBF11E0A0E0B1E0E4E4FB
:1000A000F1E000E00BBF02C007900D92AE30B10747
:1000B000D9F70E9470000C94A0000C940000CF931C
:1000C000C82F8A3019F48DE00E945F009091C00023
:1000D00095FFFCCFC093C60080E090E0CF910895DB
:1000E00011B88FEF82B914B885B987B918B820B1A3
:1000F00093B120FD02C080E001C081E021FD8F5F4F
:1001000022FD8F5F23FD8F5F24FD8F5F25FD8F5FB5
:1001100026FD8F5F22230CF48F5F90FD8F5F91FD92
:100120008F5F92FD8F5F93FD8F5F94FD8F5F95FDD5
:100130008F5F96FD8F5F99230CF48F5F88B9D7CFBF
:04014000F894FFCF61
:0E01440000000002000000005F00000000004C
:00000001FF
