:100000000C948B000C94AA000C94AA000C94AA00E7
:100010000C94AA000C94AA000C94AA000C94AA00B8
:100020000C94AA000C94AA000C94AA000C94AA00A8
:100030000C94AA000C9469020C94AA000C94AA00D7
:100040000C94AA000C94AA000C94AA000C94AA0088
:100050000C94AA000C94AA000C94AA000C94AA0078
:100060000C94AA000C94AA000C94AA000C94AA0068
:100070000C94AA000C94AA000C94AA000C94AA0058
:100080000C94AA000C94AA000C94AA00C4020703C2
:100090000703070307030703070307030703070310
:1000A0000703070307030703070307030703070300
:1000B00007030703070307030703070307030703F0
:1000C00007030703070307030703070307030703E0
:1000D00007030303070307030703070307030703D4
:1000E000FC02070307030703070307030003C80213
:1000F000CC02D002D402D802DC02E002E402E80220
:100100000703070307030703070307030703EC02BB
:10011000F002F402F80211241FBECFEFD0E4DEBFDC
:10012000CDBF11E0A0E0B1E0E0EEF7E000E00BBFF2
:1001300002C007900D92A233B107D9F721E0A2E3E4
:10014000B1E001C01D92A034B207E1F70E94900314
:100150000C94EE030C940000CF93C82F8A3019F44E
:100160008DE00E94AC008091C00085FFFCCFC09361
:10017000C60080E090E0CF910895442349F021E04B
:1001800030E002C0220F331F6A95E2F7822B0895F8
:1001900021E030E002C0220F331F6A95E2F720957C
:1001A0008223089521E030E002C0220F331F6A95B8
:1001B000E2F78223089540E050E00CC000002F5F7A
:1001C0003F4F02C020E030E0273063E03607B4F351
:1001D0004F5F5F4F48175907ACF308959BB19F7B62
:1001E0009BB988B98BB180688BB900008BB18F77D0
:1001F0008BB982E090E00E94DB00089581E00E94CC
:10020000EE000895813120F481580E94EE00089597
:1002100081550E94EE00089584E690E00E94DB0084
:1002200088E30E94EE0086E00E94EE008FE00E94CC
:10023000EE0081E00E94EE008AE090E00E94DB0088
:1002400008959BB190649BB988B98BB180688BB9D4
:1002500000008BB18F778BB981E090E00E94DB00CA
:100260000895EF92FF920F931F93CF93DF93182F70
:10027000EB010E94FE000EC001E0010F812F0E94E1
:1002800002017E018FEFE81AF80A88810E9421019D
:10029000102FE70188818111EFCFDF91CF911F915E
:1002A0000F91FF90EF90089540E064E08FEF0E947F
:1002B000BD0082B9000080B160E080950E94D2004C
:1002C000811180C080B161E080950E94D2008111CF
:1002D0007BC080B162E080950E94D200811176C01F
:1002E00080B163E080950E94D200811171C040E02E
:1002F00065E08FEF0E94BD0082B9000080B160E030
:1003000080950E94D200811165C080B161E0809526
:100310000E94D200811160C080B162E080950E948D
:10032000D20081115BC080B163E080950E94D20051
:10033000811156C040E066E08FEF0E94BD0082B997
:10034000000080B160E080950E94D20081114AC017
:1003500080B161E080950E94D200811145C080B1DA
:1003600062E080950E94D200811140C080B163E0BC
:1003700080950E94D20081113BC040E067E08FEF82
:100380000E94BD0082B9000080B160E080950E94AB
:10039000D20081112FC080B161E080950E94D2000F
:1003A00081112AC080B162E080950E94D200811143
:1003B00025C080B163E080950E94D2008823F9F0C7
:1003C00084E4089581E3089584E3089587E308951C
:1003D0008AE2089582E3089585E3089588E3089505
:1003E00080E3089583E3089586E3089589E30895FB
:1003F00083E2089581E4089582E4089583E40895F2
:100400000F931F93CF93DF93B62FA72FF82FE92FCA
:10041000022F132FD42FC52F04C0062F172FD82F2C
:10042000C92F6B2F7A2F8F2F9E2F202F312F4D2FDB
:100430005C2F0E94C303B02FA12FFD2FEC2F61155D
:1004400071058105910549F7602F712F8D2F9C2F24
:10045000DF91CF911F910F910895609312017093D6
:1004600013018093140190931501609333017093ED
:100470003401809335019093360108958BE0809389
:1004800081008DE790E0909389008093880082E05E
:1004900080936F0010928500109284008091120169
:1004A00090911301A0911401B09115018093330133
:1004B00090933401A0933501B09336018FB78068D3
:1004C0008FBF089510928100089581E080933701D5
:1004D00008951F920F920FB60F9211240BB60F9230
:1004E0002F933F934F935F936F937F938F939F933C
:1004F000AF93BF93EF93FF938091330190913401B9
:10050000A0913501B09136010197A109B1098093FD
:10051000330190933401A0933501B0933601892BB8
:100520008A2B8B2B91F40E9465028091120190918D
:100530001301A0911401B0911501809333019093A0
:100540003401A0933501B0933601FF91EF91BF9133
:10055000AF919F918F917F916F915F914F913F915B
:100560002F910F900BBE0F900FBE0F901F901895FC
:100570000E94540190E08534910508F048C0FC01C8
:10058000EA5BFF4F0C94E5038FE1809332010895FD
:1005900081E080933201089582E0809332010895D2
:1005A00083E080933201089584E0809332010895BE
:1005B00085E080933201089586E0809332010895AA
:1005C00087E080933201089588E080933201089596
:1005D00089E08093320108958AE080933201089582
:1005E0008BE08093320108958CE08093320108956E
:1005F0008DE08093320108958EE08093320108955A
:100600001092320108958FE08093320108958BE1BA
:10061000809332010895009711F481E090E00197F2
:10062000A9F4809132018E3041F480910001823131
:1006300069F482E08093000108958F3039F480914D
:100640000001823019F482E180930001089500973F
:1006500011F481E090E00197B1F4809102018823C8
:1006600021F081508093020103C080E18093020158
:1006700080910101813120F0815080930101089522
:1006800080E2809301010895009719F0019739F0F5
:100690000BC066E171E081E00E94310105C06CE1B0
:1006A00071E081E00E94310180913A0190913B011B
:1006B0008130910519F0029759F1089580913E011A
:1006C00090913F010E94270380913A0190913B0154
:1006D0000E940B0364EF71E080E090E00E942D0225
:1006E0000E94FE00809100010E9402018FE50E949D
:1006F0002101809102010E94020183E20E942101F6
:10070000809101010E94020183E20E94210108956B
:100710000E94FE0068E271E081E00E9431010895CC
:100720008FEF87B918B88AB91BB880EF81B98FE00D
:1007300082B90E940C010E94FE0064E670E080E035
:1007400090E00E942D020E943E0210923901109208
:10075000380164E670E080E090E00E942D0280E0C5
:1007600090E00E94B8026091320170E080913801FF
:10077000909139010E944403809137018823E1F36D
:1007800010923701E6CFA1E21A2EAA1BBB1BFD0176
:100790000DC0AA1FBB1FEE1FFF1FA217B307E40760
:1007A000F50720F0A21BB30BE40BF50B661F771FB8
:1007B000881F991F1A9469F7609570958095909598
:1007C0009B01AC01BD01CF010895EE0FFF1F002476
:1007D000001C0BBE0790F691E02D0994F894FFCF12
:1007E000021E09020000000200000000AC00000030
:1007F00000000100000070617573650068656C6C35
:100800006F20776F726C640047616D65204F76656D
:02081000720074
:00000001FF
