:100000000C948B000C94AA000C94AA000C94AA00E7
:100010000C94AA000C94AA000C94AA000C94AA00B8
:100020000C94AA000C94AA000C94AA000C94AA00A8
:100030000C94AA000C9469020C94AA000C94AA00D7
:100040000C94AA000C94AA000C94AA000C94AA0088
:100050000C94AA000C94AA000C94AA000C94AA0078
:100060000C94AA000C94AA000C94AA000C94AA0068
:100070000C94AA000C94AA000C94AA000C94AA0058
:100080000C94AA000C94AA000C94AA00C4020703C2
:100090000703070307030703070307030703070310
:1000A0000703070307030703070307030703070300
:1000B00007030703070307030703070307030703F0
:1000C00007030703070307030703070307030703E0
:1000D00007030303070307030703070307030703D4
:1000E000FC02070307030703070307030003C80213
:1000F000CC02D002D402D802DC02E002E402E80220
:100100000703070307030703070307030703EC02BB
:10011000F002F402F80211241FBECFEFD0E4DEBFDC
:10012000CDBF11E0A0E0B1E0EAECF7E000E00BBFEA
:1001300002C007900D92A032B107D9F721E0A0E2EA
:10014000B1E001C01D92AE32B207E1F70E94440354
:100150000C94E3030C940000CF93C82F8A3019F459
:100160008DE00E94AC008091C00085FFFCCFC09361
:10017000C60080E090E0CF910895442349F021E04B
:1001800030E002C0220F331F6A95E2F7822B0895F8
:1001900021E030E002C0220F331F6A95E2F720957C
:1001A0008223089521E030E002C0220F331F6A95B8
:1001B000E2F78223089540E050E00CC000002F5F7A
:1001C0003F4F02C020E030E0273063E03607B4F351
:1001D0004F5F5F4F48175907ACF308959BB19F7B62
:1001E0009BB988B98BB180688BB900008BB18F77D0
:1001F0008BB982E090E00E94DB00089581E00E94CC
:10020000EE000895813120F481580E94EE00089597
:1002100081550E94EE00089584E690E00E94DB0084
:1002200088E30E94EE0086E00E94EE008FE00E94CC
:10023000EE0081E00E94EE008AE090E00E94DB0088
:1002400008959BB190649BB988B98BB180688BB9D4
:1002500000008BB18F778BB981E090E00E94DB00CA
:100260000895EF92FF920F931F93CF93DF93182F70
:10027000EB010E94FE000EC001E0010F812F0E94E1
:1002800002017E018FEFE81AF80A88810E9421019D
:10029000102FE70188818111EFCFDF91CF911F915E
:1002A0000F91FF90EF90089540E064E08FEF0E947F
:1002B000BD0082B9000080B160E080950E94D2004C
:1002C000811180C080B161E080950E94D2008111CF
:1002D0007BC080B162E080950E94D200811176C01F
:1002E00080B163E080950E94D200811171C040E02E
:1002F00065E08FEF0E94BD0082B9000080B160E030
:1003000080950E94D200811165C080B161E0809526
:100310000E94D200811160C080B162E080950E948D
:10032000D20081115BC080B163E080950E94D20051
:10033000811156C040E066E08FEF0E94BD0082B997
:10034000000080B160E080950E94D20081114AC017
:1003500080B161E080950E94D200811145C080B1DA
:1003600062E080950E94D200811140C080B163E0BC
:1003700080950E94D20081113BC040E067E08FEF82
:100380000E94BD0082B9000080B160E080950E94AB
:10039000D20081112FC080B161E080950E94D2000F
:1003A00081112AC080B162E080950E94D200811143
:1003B00025C080B163E080950E94D2008823F9F0C7
:1003C00084E4089581E3089584E3089587E308951C
:1003D0008AE2089582E3089585E3089588E3089505
:1003E00080E3089583E3089586E3089589E30895FB
:1003F00083E2089581E4089582E4089583E40895F2
:100400000F931F93CF93DF93B62FA72FF82FE92FCA
:10041000022F132FD42FC52F04C0062F172FD82F2C
:10042000C92F6B2F7A2F8F2F9E2F202F312F4D2FDB
:100430005C2F0E94B803B02FA12FFD2FEC2F611568
:1004400071058105910549F7602F712F8D2F9C2F24
:10045000DF91CF911F910F910895609312017093D6
:1004600013018093140190931501609321017093FF
:100470002201809323019093240108958BE08093BF
:1004800081008DE790E0909389008093880082E05E
:1004900080936F0010928500109284008091120169
:1004A00090911301A0911401B09115018093210145
:1004B00090932201A0932301B09324018FB7806809
:1004C0008FBF089510928100089581E080932501E7
:1004D00008951F920F920FB60F9211240BB60F9230
:1004E0002F933F934F935F936F937F938F939F933C
:1004F000AF93BF93EF93FF938091210190912201DD
:10050000A0912301B09124010197A109B109809321
:10051000210190932201A0932301B0932401892B00
:100520008A2B8B2B91F40E9465028091120190918D
:100530001301A0911401B0911501809321019093B2
:100540002201A0932301B0932401FF91EF91BF9169
:10055000AF919F918F917F916F915F914F913F915B
:100560002F910F900BBE0F900FBE0F901F901895FC
:100570000E94540190E08534910508F048C0FC01C8
:10058000EA5BFF4F0C94DA038FE18093200108951A
:1005900081E080932001089582E0809320010895F6
:1005A00083E080932001089584E0809320010895E2
:1005B00085E080932001089586E0809320010895CE
:1005C00087E080932001089588E0809320010895BA
:1005D00089E08093200108958AE0809320010895A6
:1005E0008BE08093200108958CE080932001089592
:1005F0008DE08093200108958EE08093200108957E
:100600001092200108958FE08093200108958BE1DE
:10061000809320010895009711F481E090E0019704
:10062000A9F4809120018E3041F480910001823143
:1006300069F482E08093000108958F3039F480914D
:100640000001823019F482E180930001089500973F
:1006500011F481E090E00197B1F4809102018823C8
:1006600021F081508093020103C080E18093020158
:1006700080910101813120F0815080930101089522
:1006800080E28093010108958FEF87B918B88AB985
:100690001BB880EF81B98FE082B90E940C010E94E3
:1006A000FE0064E670E080E090E00E942D020E946F
:1006B0003E02109227011092260164E670E080E06D
:1006C00090E00E942D0280E090E00E94B8028091AC
:1006D000000190910201891721F090910101891385
:1006E00017C068EE73E080E090E00E942D020E9447
:1006F000FE0066E171E081E00E94310182E08093BA
:10070000000189E08093020180E28093010129C009
:1007100080912C0190912D010E9427038091280146
:10072000909129010E940B0364EF71E080E090E05A
:100730000E942D020E94FE00809100010E94020191
:100740008FE50E942101809102010E94020183E253
:100750000E942101809101010E94020183E20E9416
:100760002101809125018823E1F310922501A5CF75
:10077000A1E21A2EAA1BBB1BFD010DC0AA1FBB1FA5
:10078000EE1FFF1FA217B307E407F50720F0A21B17
:10079000B30BE40BF50B661F771F881F991F1A9484
:1007A00069F760957095809590959B01AC01BD01AE
:1007B000CF010895EE0FFF1F0024001C0BBE079011
:0A07C000F691E02D0994F894FFCFA4
:1007CA00021E09020000000200000000AC00000046
:1007DA0000000100000047616D65204F76657200D8
:00000001FF
