:100000000C9446000C9465000C9465000C946500FB
:100010000C9465000C9465000C9465000C946500CC
:100020000C9465000C9465000C9465000C946500BC
:100030000C9465000C94A3000C9465000C9465006E
:100040000C9465000C9465000C9465000C9465009C
:100050000C9465000C9465000C9465000C9465008C
:100060000C9465000C9465000C9465000C9465007C
:100070000C9465000C9465000C9465000C9465006C
:100080000C9465000C9465000C94650011241FBE4F
:10009000CFEFD0E4DEBFCDBF11E0A0E0B1E0E6EEEF
:1000A000F2E000E00BBF02C007900D92A231B10751
:1000B000D9F721E0A2E1B1E001C01D92A931B20758
:1000C000E1F70E9403010C9471010C940000CF939E
:1000D000C82F8A3019F48DE00E9467008091C0001B
:1000E00085FFFCCFC093C60080E090E0CF910895DB
:1000F0008BE0809381008DE790E09093890080935E
:10010000880082E080936F00109285001092840036
:100110008091000190910101A0910201B091030131
:100120008093120190931301A0931401B0931501D1
:100130008FB780688FBF089510928100089581E085
:100140008093160108951F920F920FB60F921124FB
:100150000BB60F922F933F934F935F936F937F93C1
:100160008F939F93AF93BF93EF93FF93809112016F
:1001700090911301A0911401B09115010197A1096B
:10018000B1098093120190931301A0931401B093CD
:100190001501892B8A2B8B2B91F40E949F00809153
:1001A000000190910101A0910201B091030180939F
:1001B000120190931301A0931401B0931501FF91C4
:1001C000EF91BF91AF919F918F917F916F915F91CF
:1001D0004F913F912F910F900BBE0F900FBE0F903C
:1001E0001F901895609300017093010180930201A4
:1001F0009093030160931201709313018093140193
:1002000090931501089511B88FEF82B984B915B88C
:100210006CE271E080E090E00E94F2000E947800C1
:10022000109218011092170191E041E0809116019F
:100230008823E1F31092160180B180958F70209190
:100240001701309118012130310561F020F0223082
:100250003105C1F027C021E030E030931801209330
:10026000170120C0813039F422E030E030931801CA
:100270002093170117C021E030E03093180120933C
:10028000170110C0813041F481E090E09093180193
:100290008093170191E006C022E030E0309318010E
:1002A0002093170120911701309118012130310559
:1002B000B1F4913049F0923049F0933049F09430E4
:1002C00049F0953059F408C041E008C042E006C04A
:1002D00044E004C042E002C091E041E09F5F45B9C4
:0602E000A5CFF894FFCF4A
:1002E600010000000000000200000000670000009E
:0202F600000006
:00000001FF
