:100000000C9446000C9465000C9465000C946500FB
:100010000C9465000C9465000C9465000C946500CC
:100020000C9465000C9465000C9465000C946500BC
:100030000C9465000C94A3000C9465000C9465006E
:100040000C9465000C9465000C9465000C9465009C
:100050000C9465000C9465000C9465000C9465008C
:100060000C9465000C9465000C9465000C9465007C
:100070000C9465000C9465000C9465000C9465006C
:100080000C9465000C9465000C94650011241FBE4F
:10009000CFEFD0E4DEBFCDBF11E0A0E0B1E0ECE1F6
:1000A000F3E000E00BBF02C007900D92A231B10750
:1000B000D9F721E0A2E1B1E001C01D92A931B20758
:1000C000E1F70E9403010C948C010C940000CF9383
:1000D000C82F8A3019F48DE00E9467008091C0001B
:1000E00085FFFCCFC093C60080E090E0CF910895DB
:1000F0008BE0809381008DE790E09093890080935E
:10010000880082E080936F00109285001092840036
:100110008091000190910101A0910201B091030131
:100120008093120190931301A0931401B0931501D1
:100130008FB780688FBF089510928100089581E085
:100140008093160108951F920F920FB60F921124FB
:100150000BB60F922F933F934F935F936F937F93C1
:100160008F939F93AF93BF93EF93FF93809112016F
:1001700090911301A0911401B09115010197A1096B
:10018000B1098093120190931301A0931401B093CD
:100190001501892B8A2B8B2B91F40E949F00809153
:1001A000000190910101A0910201B091030180939F
:1001B000120190931301A0931401B0931501FF91C4
:1001C000EF91BF91AF919F918F917F916F915F91CF
:1001D0004F913F912F910F900BBE0F900FBE0F903C
:1001E0001F901895609300017093010180930201A4
:1001F0009093030160931201709313018093140193
:1002000090931501089511B88FEF82B987B918B886
:100210006CE271E080E090E00E94F2000E947800C1
:1002200090E040E0809116018823E1F310921601DE
:1002300080B1817020911701309118012130310572
:1002400061F020F022303105C9F028C021E030E013
:10025000309318012093170121C0933041F422E01C
:1002600030E0309318012093170190E017C021E08F
:1002700030E0309318012093170110C0933041F4FF
:1002800021E030E0309318012093170190E006C080
:1002900022E030E0309318012093170120911701DC
:1002A000309118012130310521F022303105A1F0C3
:1002B00031C0911105C0882311F19F5F41E02AC030
:1002C000913029F48823E9F09F5F42E023C088231E
:1002D000D1F09F5F44E01EC0911105C08823A9F0B2
:1002E0009F5F44E017C0913029F4882381F09F5F1D
:1002F00042E010C0882369F09F5F41E00BC041E0FD
:1003000009C042E007C044E005C044E003C042E049
:0C03100001C041E048B986CFF894FFCF4F
:10031C000100000000000002000000006700000067
:02032C000000CF
:00000001FF
